{
  "address": "0xe7f1725E7734CE288F8367e1Bb143E90bb3F0512",
  "abi": [
    {
      "inputs": [
        {
          "internalType": "address",
          "name": "priceFeedAddress",
          "type": "address"
        }
      ],
      "stateMutability": "nonpayable",
      "type": "constructor"
    },
    {
      "inputs": [],
      "name": "FundMe__NotOwner",
      "type": "error"
    },
    {
      "stateMutability": "payable",
      "type": "fallback"
    },
    {
      "inputs": [],
      "name": "MINIMUM_USD",
      "outputs": [
        {
          "internalType": "uint256",
          "name": "",
          "type": "uint256"
        }
      ],
      "stateMutability": "view",
      "type": "function"
    },
    {
      "inputs": [],
      "name": "cheaperWithdraw",
      "outputs": [],
      "stateMutability": "payable",
      "type": "function"
    },
    {
      "inputs": [
        {
          "internalType": "address",
          "name": "funderAddress",
          "type": "address"
        }
      ],
      "name": "getFunderAmount",
      "outputs": [
        {
          "internalType": "uint256",
          "name": "",
          "type": "uint256"
        }
      ],
      "stateMutability": "view",
      "type": "function"
    },
    {
      "inputs": [
        {
          "internalType": "uint256",
          "name": "funderIndex",
          "type": "uint256"
        }
      ],
      "name": "getFunders",
      "outputs": [
        {
          "internalType": "address",
          "name": "",
          "type": "address"
        }
      ],
      "stateMutability": "view",
      "type": "function"
    },
    {
      "inputs": [],
      "name": "getOwner",
      "outputs": [
        {
          "internalType": "address",
          "name": "",
          "type": "address"
        }
      ],
      "stateMutability": "view",
      "type": "function"
    },
    {
      "inputs": [],
      "name": "getPriceFeed",
      "outputs": [
        {
          "internalType": "contract AggregatorV3Interface",
          "name": "",
          "type": "address"
        }
      ],
      "stateMutability": "view",
      "type": "function"
    },
    {
      "inputs": [],
      "name": "sendUsd",
      "outputs": [],
      "stateMutability": "payable",
      "type": "function"
    },
    {
      "inputs": [],
      "name": "withdraw",
      "outputs": [],
      "stateMutability": "payable",
      "type": "function"
    },
    {
      "stateMutability": "payable",
      "type": "receive"
    }
  ],
  "transactionHash": "0x3d7eb637710f47e21f46fdd7e0dfde7921fe20dc40c7d4cd5dbc467378306046",
  "args": [
    "0x5FbDB2315678afecb367f032d93F642f64180aa3"
  ],
  "numDeployments": 1,
  "solcInputHash": "b3d34d88b023f4d849bba6d07c355fb8",
  "bytecode": "0x60a06040523480156200001157600080fd5b506040516200128338038062001283833981810160405281019062000037919062000120565b3373ffffffffffffffffffffffffffffffffffffffff1660808173ffffffffffffffffffffffffffffffffffffffff1660601b8152505080600260006101000a81548173ffffffffffffffffffffffffffffffffffffffff021916908373ffffffffffffffffffffffffffffffffffffffff1602179055505062000152565b600080fd5b600073ffffffffffffffffffffffffffffffffffffffff82169050919050565b6000620000e882620000bb565b9050919050565b620000fa81620000db565b81146200010657600080fd5b50565b6000815190506200011a81620000ef565b92915050565b600060208284031215620001395762000138620000b6565b5b6000620001498482850162000109565b91505092915050565b60805160601c6111046200017f600039600081816103220152818161057101526105c101526111046000f3fe60806040526004361061007f5760003560e01c80639e87a5cd1161004e5780639e87a5cd14610135578063be2693f014610160578063dec91edc1461016a578063f49f1ff8146101a75761008e565b80633a7b6c74146100985780633ccfd60b146100d55780636b69a592146100df578063893d20e81461010a5761008e565b3661008e5761008c6101b1565b005b6100966101b1565b005b3480156100a457600080fd5b506100bf60048036038101906100ba9190610a6a565b6102d9565b6040516100cc9190610ad8565b60405180910390f35b6100dd610320565b005b3480156100eb57600080fd5b506100f4610560565b6040516101019190610b02565b60405180910390f35b34801561011657600080fd5b5061011f61056d565b60405161012c9190610ad8565b60405180910390f35b34801561014157600080fd5b5061014a610595565b6040516101579190610b7c565b60405180910390f35b6101686105bf565b005b34801561017657600080fd5b50610191600480360381019061018c9190610bc3565b610863565b60405161019e9190610b02565b60405180910390f35b6101af6101b1565b005b6802b5e3af16b18800006101f0600260009054906101000a900473ffffffffffffffffffffffffffffffffffffffff16346108ac90919063ffffffff16565b11610230576040517f08c379a000000000000000000000000000000000000000000000000000000000815260040161022790610c4d565b60405180910390fd5b6000339080600181540180825580915050600190039060005260206000200160009091909190916101000a81548173ffffffffffffffffffffffffffffffffffffffff021916908373ffffffffffffffffffffffffffffffffffffffff16021790555034600160003373ffffffffffffffffffffffffffffffffffffffff1673ffffffffffffffffffffffffffffffffffffffff16815260200190815260200160002081905550565b60008082815481106102ee576102ed610c6d565b5b9060005260206000200160009054906101000a900473ffffffffffffffffffffffffffffffffffffffff169050919050565b7f000000000000000000000000000000000000000000000000000000000000000073ffffffffffffffffffffffffffffffffffffffff163373ffffffffffffffffffffffffffffffffffffffff16146103a5576040517f579610db00000000000000000000000000000000000000000000000000000000815260040160405180910390fd5b60005b6000805490508110156104505760008082815481106103ca576103c9610c6d565b5b9060005260206000200160009054906101000a900473ffffffffffffffffffffffffffffffffffffffff1690506000600160008373ffffffffffffffffffffffffffffffffffffffff1673ffffffffffffffffffffffffffffffffffffffff1681526020019081526020016000208190555050808061044890610ccb565b9150506103a8565b50600067ffffffffffffffff81111561046c5761046b610d14565b5b60405190808252806020026020018201604052801561049a5781602001602082028036833780820191505090505b50600090805190602001906104b0929190610988565b5060003373ffffffffffffffffffffffffffffffffffffffff16476040516104d790610d74565b60006040518083038185875af1925050503d8060008114610514576040519150601f19603f3d011682016040523d82523d6000602084013e610519565b606091505b505090508061055d576040517f08c379a000000000000000000000000000000000000000000000000000000000815260040161055490610dd5565b60405180910390fd5b50565b6802b5e3af16b188000081565b60007f0000000000000000000000000000000000000000000000000000000000000000905090565b6000600260009054906101000a900473ffffffffffffffffffffffffffffffffffffffff16905090565b7f000000000000000000000000000000000000000000000000000000000000000073ffffffffffffffffffffffffffffffffffffffff163373ffffffffffffffffffffffffffffffffffffffff1614610644576040517f579610db00000000000000000000000000000000000000000000000000000000815260040160405180910390fd5b6000808054806020026020016040519081016040528092919081815260200182805480156106c757602002820191906000526020600020905b8160009054906101000a900473ffffffffffffffffffffffffffffffffffffffff1673ffffffffffffffffffffffffffffffffffffffff168152602001906001019080831161067d575b5050505050905060005b81518110156107525760008282815181106106ef576106ee610c6d565b5b602002602001015190506000600160008373ffffffffffffffffffffffffffffffffffffffff1673ffffffffffffffffffffffffffffffffffffffff1681526020019081526020016000208190555050808061074a90610ccb565b9150506106d1565b50600067ffffffffffffffff81111561076e5761076d610d14565b5b60405190808252806020026020018201604052801561079c5781602001602082028036833780820191505090505b50600090805190602001906107b2929190610988565b5060003373ffffffffffffffffffffffffffffffffffffffff16476040516107d990610d74565b60006040518083038185875af1925050503d8060008114610816576040519150601f19603f3d011682016040523d82523d6000602084013e61081b565b606091505b505090508061085f576040517f08c379a000000000000000000000000000000000000000000000000000000000815260040161085690610dd5565b60405180910390fd5b5050565b6000600160008373ffffffffffffffffffffffffffffffffffffffff1673ffffffffffffffffffffffffffffffffffffffff168152602001908152602001600020549050919050565b6000806108b8836108e8565b90506000670de0b6b3a764000082866108d19190610df5565b6108db9190610e7e565b9050809250505092915050565b6000808273ffffffffffffffffffffffffffffffffffffffff1663feaf968c6040518163ffffffff1660e01b815260040160a06040518083038186803b15801561093157600080fd5b505afa158015610945573d6000803e3d6000fd5b505050506040513d601f19601f820116820180604052508101906109699190610f3c565b5050509150506402540be400816109809190610fb7565b915050919050565b828054828255906000526020600020908101928215610a01579160200282015b82811115610a005782518260006101000a81548173ffffffffffffffffffffffffffffffffffffffff021916908373ffffffffffffffffffffffffffffffffffffffff160217905550916020019190600101906109a8565b5b509050610a0e9190610a12565b5090565b5b80821115610a2b576000816000905550600101610a13565b5090565b600080fd5b6000819050919050565b610a4781610a34565b8114610a5257600080fd5b50565b600081359050610a6481610a3e565b92915050565b600060208284031215610a8057610a7f610a2f565b5b6000610a8e84828501610a55565b91505092915050565b600073ffffffffffffffffffffffffffffffffffffffff82169050919050565b6000610ac282610a97565b9050919050565b610ad281610ab7565b82525050565b6000602082019050610aed6000830184610ac9565b92915050565b610afc81610a34565b82525050565b6000602082019050610b176000830184610af3565b92915050565b6000819050919050565b6000610b42610b3d610b3884610a97565b610b1d565b610a97565b9050919050565b6000610b5482610b27565b9050919050565b6000610b6682610b49565b9050919050565b610b7681610b5b565b82525050565b6000602082019050610b916000830184610b6d565b92915050565b610ba081610ab7565b8114610bab57600080fd5b50565b600081359050610bbd81610b97565b92915050565b600060208284031215610bd957610bd8610a2f565b5b6000610be784828501610bae565b91505092915050565b600082825260208201905092915050565b7f4469646e27742073656e6420656e6f7567680000000000000000000000000000600082015250565b6000610c37601283610bf0565b9150610c4282610c01565b602082019050919050565b60006020820190508181036000830152610c6681610c2a565b9050919050565b7f4e487b7100000000000000000000000000000000000000000000000000000000600052603260045260246000fd5b7f4e487b7100000000000000000000000000000000000000000000000000000000600052601160045260246000fd5b6000610cd682610a34565b91507fffffffffffffffffffffffffffffffffffffffffffffffffffffffffffffffff821415610d0957610d08610c9c565b5b600182019050919050565b7f4e487b7100000000000000000000000000000000000000000000000000000000600052604160045260246000fd5b600081905092915050565b50565b6000610d5e600083610d43565b9150610d6982610d4e565b600082019050919050565b6000610d7f82610d51565b9150819050919050565b7f5472616e73666572204661696c65642121000000000000000000000000000000600082015250565b6000610dbf601183610bf0565b9150610dca82610d89565b602082019050919050565b60006020820190508181036000830152610dee81610db2565b9050919050565b6000610e0082610a34565b9150610e0b83610a34565b9250817fffffffffffffffffffffffffffffffffffffffffffffffffffffffffffffffff0483118215151615610e4457610e43610c9c565b5b828202905092915050565b7f4e487b7100000000000000000000000000000000000000000000000000000000600052601260045260246000fd5b6000610e8982610a34565b9150610e9483610a34565b925082610ea457610ea3610e4f565b5b828204905092915050565b600069ffffffffffffffffffff82169050919050565b610ece81610eaf565b8114610ed957600080fd5b50565b600081519050610eeb81610ec5565b92915050565b6000819050919050565b610f0481610ef1565b8114610f0f57600080fd5b50565b600081519050610f2181610efb565b92915050565b600081519050610f3681610a3e565b92915050565b600080600080600060a08688031215610f5857610f57610a2f565b5b6000610f6688828901610edc565b9550506020610f7788828901610f12565b9450506040610f8888828901610f27565b9350506060610f9988828901610f27565b9250506080610faa88828901610edc565b9150509295509295909350565b6000610fc282610ef1565b9150610fcd83610ef1565b9250827f7fffffffffffffffffffffffffffffffffffffffffffffffffffffffffffffff048211600084136000841316161561100c5761100b610c9c565b5b817f8000000000000000000000000000000000000000000000000000000000000000058312600084126000841316161561104957611048610c9c565b5b827f8000000000000000000000000000000000000000000000000000000000000000058212600084136000841216161561108657611085610c9c565b5b827f7fffffffffffffffffffffffffffffffffffffffffffffffffffffffffffffff05821260008412600084121616156110c3576110c2610c9c565b5b82820290509291505056fea264697066735822122032f6e5a2e5789f3e2e197258551759747642613eb153d7fb53268a4e6d1bcbe664736f6c63430008080033",
  "devdoc": {
    "kind": "dev",
    "methods": {},
    "version": 1
  },
  "userdoc": {
    "kind": "user",
    "methods": {},
    "version": 1
  },
  "storageLayout": {
    "storage": [
      {
        "astId": 61,
        "contract": "contracts/FundMe.sol:FundMe",
        "label": "s_funders",
        "offset": 0,
        "slot": "0",
        "type": "t_array(t_address)dyn_storage"
      },
      {
        "astId": 65,
        "contract": "contracts/FundMe.sol:FundMe",
        "label": "s_funderAmount",
        "offset": 0,
        "slot": "1",
        "type": "t_mapping(t_address,t_uint256)"
      },
      {
        "astId": 68,
        "contract": "contracts/FundMe.sol:FundMe",
        "label": "s_priceFeed",
        "offset": 0,
        "slot": "2",
        "type": "t_contract(AggregatorV3Interface)45"
      }
    ],
    "types": {
      "t_address": {
        "encoding": "inplace",
        "label": "address",
        "numberOfBytes": "20"
      },
      "t_array(t_address)dyn_storage": {
        "base": "t_address",
        "encoding": "dynamic_array",
        "label": "address[]",
        "numberOfBytes": "32"
      },
      "t_contract(AggregatorV3Interface)45": {
        "encoding": "inplace",
        "label": "contract AggregatorV3Interface",
        "numberOfBytes": "20"
      },
      "t_mapping(t_address,t_uint256)": {
        "encoding": "mapping",
        "key": "t_address",
        "label": "mapping(address => uint256)",
        "numberOfBytes": "32",
        "value": "t_uint256"
      },
      "t_uint256": {
        "encoding": "inplace",
        "label": "uint256",
        "numberOfBytes": "32"
      }
    }
  }
}